{
  "_format": "hh-sol-artifact-1",
  "contractName": "ERC721",
  "sourceName": "contracts/StrippedDown/token/ERC721/ERC721.sol",
  "abi": [
    {
      "inputs": [
        {
          "internalType": "address",
          "name": "ownerAddy",
          "type": "address"
        },
        {
          "internalType": "address",
          "name": "ledgerAddy",
          "type": "address"
        }
      ],
      "stateMutability": "nonpayable",
      "type": "constructor"
    },
    {
      "anonymous": false,
      "inputs": [
        {
          "indexed": true,
          "internalType": "address",
          "name": "owner",
          "type": "address"
        },
        {
          "indexed": true,
          "internalType": "address",
          "name": "approved",
          "type": "address"
        },
        {
          "indexed": true,
          "internalType": "uint256",
          "name": "tokenId",
          "type": "uint256"
        }
      ],
      "name": "Approval",
      "type": "event"
    },
    {
      "anonymous": false,
      "inputs": [
        {
          "indexed": true,
          "internalType": "address",
          "name": "owner",
          "type": "address"
        },
        {
          "indexed": true,
          "internalType": "address",
          "name": "operator",
          "type": "address"
        },
        {
          "indexed": false,
          "internalType": "bool",
          "name": "approved",
          "type": "bool"
        }
      ],
      "name": "ApprovalForAll",
      "type": "event"
    },
    {
      "anonymous": false,
      "inputs": [
        {
          "indexed": true,
          "internalType": "address",
          "name": "from",
          "type": "address"
        },
        {
          "indexed": true,
          "internalType": "address",
          "name": "to",
          "type": "address"
        },
        {
          "indexed": true,
          "internalType": "uint256",
          "name": "tokenId",
          "type": "uint256"
        }
      ],
      "name": "Transfer",
      "type": "event"
    },
    {
      "inputs": [
        {
          "internalType": "address",
          "name": "to",
          "type": "address"
        },
        {
          "internalType": "uint256",
          "name": "tokenId",
          "type": "uint256"
        }
      ],
      "name": "approve",
      "outputs": [],
      "stateMutability": "nonpayable",
      "type": "function"
    },
    {
      "inputs": [
        {
          "internalType": "address",
          "name": "owner",
          "type": "address"
        }
      ],
      "name": "balanceOf",
      "outputs": [
        {
          "internalType": "uint256",
          "name": "",
          "type": "uint256"
        }
      ],
      "stateMutability": "view",
      "type": "function"
    },
    {
      "inputs": [
        {
          "internalType": "uint256",
          "name": "tokenID",
          "type": "uint256"
        }
      ],
      "name": "burn",
      "outputs": [],
      "stateMutability": "nonpayable",
      "type": "function"
    },
    {
      "inputs": [
        {
          "internalType": "uint256",
          "name": "tokenId",
          "type": "uint256"
        }
      ],
      "name": "getApproved",
      "outputs": [
        {
          "internalType": "address",
          "name": "",
          "type": "address"
        }
      ],
      "stateMutability": "view",
      "type": "function"
    },
    {
      "inputs": [],
      "name": "getNewTokenID",
      "outputs": [
        {
          "internalType": "uint256",
          "name": "",
          "type": "uint256"
        }
      ],
      "stateMutability": "view",
      "type": "function"
    },
    {
      "inputs": [
        {
          "internalType": "address",
          "name": "owner",
          "type": "address"
        },
        {
          "internalType": "address",
          "name": "operator",
          "type": "address"
        }
      ],
      "name": "isApprovedForAll",
      "outputs": [
        {
          "internalType": "bool",
          "name": "",
          "type": "bool"
        }
      ],
      "stateMutability": "view",
      "type": "function"
    },
    {
      "inputs": [],
      "name": "name",
      "outputs": [
        {
          "internalType": "string",
          "name": "",
          "type": "string"
        }
      ],
      "stateMutability": "view",
      "type": "function"
    },
    {
      "inputs": [
        {
          "internalType": "uint256",
          "name": "tokenId",
          "type": "uint256"
        }
      ],
      "name": "ownerOf",
      "outputs": [
        {
          "internalType": "address",
          "name": "",
          "type": "address"
        }
      ],
      "stateMutability": "view",
      "type": "function"
    },
    {
      "inputs": [
        {
          "internalType": "address",
          "name": "from",
          "type": "address"
        },
        {
          "internalType": "address",
          "name": "to",
          "type": "address"
        },
        {
          "internalType": "uint256",
          "name": "tokenId",
          "type": "uint256"
        }
      ],
      "name": "safeTransferFrom",
      "outputs": [],
      "stateMutability": "nonpayable",
      "type": "function"
    },
    {
      "inputs": [
        {
          "internalType": "address",
          "name": "from",
          "type": "address"
        },
        {
          "internalType": "address",
          "name": "to",
          "type": "address"
        },
        {
          "internalType": "uint256",
          "name": "tokenId",
          "type": "uint256"
        },
        {
          "internalType": "bytes",
          "name": "_data",
          "type": "bytes"
        }
      ],
      "name": "safeTransferFrom",
      "outputs": [],
      "stateMutability": "nonpayable",
      "type": "function"
    },
    {
      "inputs": [
        {
          "internalType": "address",
          "name": "operator",
          "type": "address"
        },
        {
          "internalType": "bool",
          "name": "approved",
          "type": "bool"
        }
      ],
      "name": "setApprovalForAll",
      "outputs": [],
      "stateMutability": "nonpayable",
      "type": "function"
    },
    {
      "inputs": [
        {
          "internalType": "bytes4",
          "name": "interfaceId",
          "type": "bytes4"
        }
      ],
      "name": "supportsInterface",
      "outputs": [
        {
          "internalType": "bool",
          "name": "",
          "type": "bool"
        }
      ],
      "stateMutability": "view",
      "type": "function"
    },
    {
      "inputs": [],
      "name": "symbol",
      "outputs": [
        {
          "internalType": "string",
          "name": "",
          "type": "string"
        }
      ],
      "stateMutability": "view",
      "type": "function"
    },
    {
      "inputs": [
        {
          "internalType": "uint256",
          "name": "tokenId",
          "type": "uint256"
        }
      ],
      "name": "tokenURI",
      "outputs": [
        {
          "internalType": "string",
          "name": "",
          "type": "string"
        }
      ],
      "stateMutability": "view",
      "type": "function"
    },
    {
      "inputs": [
        {
          "internalType": "address",
          "name": "from",
          "type": "address"
        },
        {
          "internalType": "address",
          "name": "to",
          "type": "address"
        },
        {
          "internalType": "uint256",
          "name": "tokenId",
          "type": "uint256"
        }
      ],
      "name": "transferFrom",
      "outputs": [],
      "stateMutability": "nonpayable",
      "type": "function"
    }
  ],
  "bytecode": "0x60806040523480156200001157600080fd5b506040516200125938038062001259833981810160405281019062000037919062000118565b816000806101000a81548173ffffffffffffffffffffffffffffffffffffffff021916908373ffffffffffffffffffffffffffffffffffffffff16021790555080600160006101000a81548173ffffffffffffffffffffffffffffffffffffffff021916908373ffffffffffffffffffffffffffffffffffffffff16021790555080600260006101000a81548173ffffffffffffffffffffffffffffffffffffffff021916908373ffffffffffffffffffffffffffffffffffffffff1602179055505050620001a7565b60008151905062000112816200018d565b92915050565b600080604083850312156200012c57600080fd5b60006200013c8582860162000101565b92505060206200014f8582860162000101565b9150509250929050565b600062000166826200016d565b9050919050565b600073ffffffffffffffffffffffffffffffffffffffff82169050919050565b620001988162000159565b8114620001a457600080fd5b50565b6110a280620001b76000396000f3fe608060405234801561001057600080fd5b50600436106100f55760003560e01c806342966c6811610097578063a22cb46511610066578063a22cb46514610284578063b88d4fde146102a0578063c87b56dd146102bc578063e985e9c5146102ec576100f5565b806342966c68146101ea5780636352211e1461020657806370a082311461023657806395d89b4114610266576100f5565b8063081812fc116100d3578063081812fc14610166578063095ea7b31461019657806323b872dd146101b257806342842e0e146101ce576100f5565b806301ffc9a7146100fa57806305a027d61461012a57806306fdde0314610148575b600080fd5b610114600480360381019061010f9190610c78565b61031c565b6040516101219190610df5565b60405180910390f35b6101326103fe565b60405161013f9190610e52565b60405180910390f35b6101506104a5565b60405161015d9190610e10565b60405180910390f35b610180600480360381019061017b9190610ce2565b610551565b60405161018d9190610dda565b60405180910390f35b6101b060048036038101906101ab9190610c3c565b610558565b005b6101cc60048036038101906101c79190610b36565b61055c565b005b6101e860048036038101906101e39190610b36565b610561565b005b61020460048036038101906101ff9190610ce2565b610581565b005b610220600480360381019061021b9190610ce2565b61069f565b60405161022d9190610dda565b60405180910390f35b610250600480360381019061024b9190610aa8565b610753565b60405161025d9190610e52565b60405180910390f35b61026e61075a565b60405161027b9190610e10565b60405180910390f35b61029e60048036038101906102999190610c00565b610806565b005b6102ba60048036038101906102b59190610b85565b61081c565b005b6102d660048036038101906102d19190610ce2565b610822565b6040516102e39190610e10565b60405180910390f35b61030660048036038101906103019190610afa565b6108db565b6040516103139190610df5565b60405180910390f35b60007f80ac58cd000000000000000000000000000000000000000000000000000000007bffffffffffffffffffffffffffffffffffffffffffffffffffffffff1916827bffffffffffffffffffffffffffffffffffffffffffffffffffffffff191614806103e757507f5b5e139f000000000000000000000000000000000000000000000000000000007bffffffffffffffffffffffffffffffffffffffffffffffffffffffff1916827bffffffffffffffffffffffffffffffffffffffffffffffffffffffff1916145b806103f757506103f6826108e3565b5b9050919050565b6000600260009054906101000a900473ffffffffffffffffffffffffffffffffffffffff1673ffffffffffffffffffffffffffffffffffffffff16636ba367a36040518163ffffffff1660e01b815260040160206040518083038186803b15801561046857600080fd5b505afa15801561047c573d6000803e3d6000fd5b505050506040513d601f19601f820116820180604052508101906104a09190610d0b565b905090565b6060600260009054906101000a900473ffffffffffffffffffffffffffffffffffffffff1673ffffffffffffffffffffffffffffffffffffffff166306fdde036040518163ffffffff1660e01b815260040160006040518083038186803b15801561050f57600080fd5b505afa158015610523573d6000803e3d6000fd5b505050506040513d6000823e3d601f19601f8201168201806040525081019061054c9190610ca1565b905090565b6000919050565b5050565b505050565b61057c8383836040518060200160405280600081525061081c565b505050565b60008054906101000a900473ffffffffffffffffffffffffffffffffffffffff1673ffffffffffffffffffffffffffffffffffffffff163373ffffffffffffffffffffffffffffffffffffffff161461060f576040517f08c379a000000000000000000000000000000000000000000000000000000000815260040161060690610e32565b60405180910390fd5b600260009054906101000a900473ffffffffffffffffffffffffffffffffffffffff1673ffffffffffffffffffffffffffffffffffffffff16635388a013826040518263ffffffff1660e01b815260040161066a9190610e52565b600060405180830381600087803b15801561068457600080fd5b505af1158015610698573d6000803e3d6000fd5b5050505050565b6000600260009054906101000a900473ffffffffffffffffffffffffffffffffffffffff1673ffffffffffffffffffffffffffffffffffffffff16636352211e836040518263ffffffff1660e01b81526004016106fc9190610e52565b60206040518083038186803b15801561071457600080fd5b505afa158015610728573d6000803e3d6000fd5b505050506040513d601f19601f8201168201806040525081019061074c9190610ad1565b9050919050565b6000919050565b6060600260009054906101000a900473ffffffffffffffffffffffffffffffffffffffff1673ffffffffffffffffffffffffffffffffffffffff166395d89b416040518163ffffffff1660e01b815260040160006040518083038186803b1580156107c457600080fd5b505afa1580156107d8573d6000803e3d6000fd5b505050506040513d6000823e3d601f19601f820116820180604052508101906108019190610ca1565b905090565b61081861081161094d565b8383610955565b5050565b50505050565b6060600260009054906101000a900473ffffffffffffffffffffffffffffffffffffffff1673ffffffffffffffffffffffffffffffffffffffff1663c87b56dd836040518263ffffffff1660e01b815260040161087f9190610e52565b60006040518083038186803b15801561089757600080fd5b505afa1580156108ab573d6000803e3d6000fd5b505050506040513d6000823e3d601f19601f820116820180604052508101906108d49190610ca1565b9050919050565b600092915050565b60007f01ffc9a7000000000000000000000000000000000000000000000000000000007bffffffffffffffffffffffffffffffffffffffffffffffffffffffff1916827bffffffffffffffffffffffffffffffffffffffffffffffffffffffff1916149050919050565b600033905090565b505050565b600061096d61096884610e9e565b610e6d565b90508281526020810184848401111561098557600080fd5b610990848285610f8e565b509392505050565b60006109ab6109a684610ece565b610e6d565b9050828152602081018484840111156109c357600080fd5b6109ce848285610f9d565b509392505050565b6000813590506109e581611010565b92915050565b6000815190506109fa81611010565b92915050565b600081359050610a0f81611027565b92915050565b600081359050610a248161103e565b92915050565b600082601f830112610a3b57600080fd5b8135610a4b84826020860161095a565b91505092915050565b600082601f830112610a6557600080fd5b8151610a75848260208601610998565b91505092915050565b600081359050610a8d81611055565b92915050565b600081519050610aa281611055565b92915050565b600060208284031215610aba57600080fd5b6000610ac8848285016109d6565b91505092915050565b600060208284031215610ae357600080fd5b6000610af1848285016109eb565b91505092915050565b60008060408385031215610b0d57600080fd5b6000610b1b858286016109d6565b9250506020610b2c858286016109d6565b9150509250929050565b600080600060608486031215610b4b57600080fd5b6000610b59868287016109d6565b9350506020610b6a868287016109d6565b9250506040610b7b86828701610a7e565b9150509250925092565b60008060008060808587031215610b9b57600080fd5b6000610ba9878288016109d6565b9450506020610bba878288016109d6565b9350506040610bcb87828801610a7e565b925050606085013567ffffffffffffffff811115610be857600080fd5b610bf487828801610a2a565b91505092959194509250565b60008060408385031215610c1357600080fd5b6000610c21858286016109d6565b9250506020610c3285828601610a00565b9150509250929050565b60008060408385031215610c4f57600080fd5b6000610c5d858286016109d6565b9250506020610c6e85828601610a7e565b9150509250929050565b600060208284031215610c8a57600080fd5b6000610c9884828501610a15565b91505092915050565b600060208284031215610cb357600080fd5b600082015167ffffffffffffffff811115610ccd57600080fd5b610cd984828501610a54565b91505092915050565b600060208284031215610cf457600080fd5b6000610d0284828501610a7e565b91505092915050565b600060208284031215610d1d57600080fd5b6000610d2b84828501610a93565b91505092915050565b610d3d81610f1a565b82525050565b610d4c81610f2c565b82525050565b6000610d5d82610efe565b610d678185610f09565b9350610d77818560208601610f9d565b610d8081610fff565b840191505092915050565b6000610d98600983610f09565b91507f6e6f74206f776e657200000000000000000000000000000000000000000000006000830152602082019050919050565b610dd481610f84565b82525050565b6000602082019050610def6000830184610d34565b92915050565b6000602082019050610e0a6000830184610d43565b92915050565b60006020820190508181036000830152610e2a8184610d52565b905092915050565b60006020820190508181036000830152610e4b81610d8b565b9050919050565b6000602082019050610e676000830184610dcb565b92915050565b6000604051905081810181811067ffffffffffffffff82111715610e9457610e93610fd0565b5b8060405250919050565b600067ffffffffffffffff821115610eb957610eb8610fd0565b5b601f19601f8301169050602081019050919050565b600067ffffffffffffffff821115610ee957610ee8610fd0565b5b601f19601f8301169050602081019050919050565b600081519050919050565b600082825260208201905092915050565b6000610f2582610f64565b9050919050565b60008115159050919050565b60007fffffffff0000000000000000000000000000000000000000000000000000000082169050919050565b600073ffffffffffffffffffffffffffffffffffffffff82169050919050565b6000819050919050565b82818337600083830152505050565b60005b83811015610fbb578082015181840152602081019050610fa0565b83811115610fca576000848401525b50505050565b7f4e487b7100000000000000000000000000000000000000000000000000000000600052604160045260246000fd5b6000601f19601f8301169050919050565b61101981610f1a565b811461102457600080fd5b50565b61103081610f2c565b811461103b57600080fd5b50565b61104781610f38565b811461105257600080fd5b50565b61105e81610f84565b811461106957600080fd5b5056fea264697066735822122027148484e62d6d7a63b080abc658dd518739b5b0ceee17022b5809953b86f0bd64736f6c63430008000033",
  "linkReferences": {},
  "deployedLinkReferences": {}
}