{
  "_format": "hh-sol-artifact-1",
  "contractName": "ibridgeRegistry",
  "sourceName": "contracts/StrippedDown/token/ERC721/ERC721.sol",
  "abi": [
    {
      "inputs": [
        {
          "internalType": "uint256",
          "name": "proxy_",
          "type": "uint256"
        }
      ],
      "name": "burnProxy",
      "outputs": [],
      "stateMutability": "nonpayable",
      "type": "function"
    },
    {
      "inputs": [],
      "name": "getTokenID",
      "outputs": [
        {
          "internalType": "uint256",
          "name": "",
          "type": "uint256"
        }
      ],
      "stateMutability": "view",
      "type": "function"
    },
    {
      "inputs": [
        {
          "internalType": "string",
          "name": "name_",
          "type": "string"
        },
        {
          "internalType": "string",
          "name": "symbol_",
          "type": "string"
        },
        {
          "internalType": "string",
          "name": "assetData_",
          "type": "string"
        }
      ],
      "name": "mintInReg",
      "outputs": [
        {
          "internalType": "address",
          "name": "",
          "type": "address"
        }
      ],
      "stateMutability": "nonpayable",
      "type": "function"
    },
    {
      "inputs": [],
      "name": "name",
      "outputs": [
        {
          "internalType": "string",
          "name": "",
          "type": "string"
        }
      ],
      "stateMutability": "view",
      "type": "function"
    },
    {
      "inputs": [
        {
          "internalType": "uint256",
          "name": "tokenId",
          "type": "uint256"
        }
      ],
      "name": "ownerOf",
      "outputs": [
        {
          "internalType": "address",
          "name": "",
          "type": "address"
        }
      ],
      "stateMutability": "view",
      "type": "function"
    },
    {
      "inputs": [],
      "name": "symbol",
      "outputs": [
        {
          "internalType": "string",
          "name": "",
          "type": "string"
        }
      ],
      "stateMutability": "view",
      "type": "function"
    },
    {
      "inputs": [
        {
          "internalType": "uint256",
          "name": "tokenId",
          "type": "uint256"
        }
      ],
      "name": "tokenURI",
      "outputs": [
        {
          "internalType": "string",
          "name": "",
          "type": "string"
        }
      ],
      "stateMutability": "view",
      "type": "function"
    }
  ],
  "bytecode": "0x608060405234801561001057600080fd5b50610525806100206000396000f3fe608060405234801561001057600080fd5b506004361061007d5760003560e01c80636352211e1161005b5780636352211e146100ec5780636ba367a31461011c57806395d89b411461013a578063c87b56dd146101585761007d565b806306fdde03146100825780632e2a9415146100a05780635388a013146100d0575b600080fd5b61008a610188565b6040516100979190610360565b60405180910390f35b6100ba60048036038101906100b5919061022e565b61018d565b6040516100c79190610345565b60405180910390f35b6100ea60048036038101906100e591906102c5565b610196565b005b610106600480360381019061010191906102c5565b610199565b6040516101139190610345565b60405180910390f35b6101246101a0565b6040516101319190610382565b60405180910390f35b6101426101a5565b60405161014f9190610360565b60405180910390f35b610172600480360381019061016d91906102c5565b6101aa565b60405161017f9190610360565b60405180910390f35b606090565b60009392505050565b50565b6000919050565b600090565b606090565b6060919050565b60006101c46101bf846103ce565b61039d565b9050828152602081018484840111156101dc57600080fd5b6101e7848285610456565b509392505050565b600082601f83011261020057600080fd5b81356102108482602086016101b1565b91505092915050565b600081359050610228816104d8565b92915050565b60008060006060848603121561024357600080fd5b600084013567ffffffffffffffff81111561025d57600080fd5b610269868287016101ef565b935050602084013567ffffffffffffffff81111561028657600080fd5b610292868287016101ef565b925050604084013567ffffffffffffffff8111156102af57600080fd5b6102bb868287016101ef565b9150509250925092565b6000602082840312156102d757600080fd5b60006102e584828501610219565b91505092915050565b6102f78161041a565b82525050565b6000610308826103fe565b6103128185610409565b9350610322818560208601610465565b61032b816104c7565b840191505092915050565b61033f8161044c565b82525050565b600060208201905061035a60008301846102ee565b92915050565b6000602082019050818103600083015261037a81846102fd565b905092915050565b60006020820190506103976000830184610336565b92915050565b6000604051905081810181811067ffffffffffffffff821117156103c4576103c3610498565b5b8060405250919050565b600067ffffffffffffffff8211156103e9576103e8610498565b5b601f19601f8301169050602081019050919050565b600081519050919050565b600082825260208201905092915050565b60006104258261042c565b9050919050565b600073ffffffffffffffffffffffffffffffffffffffff82169050919050565b6000819050919050565b82818337600083830152505050565b60005b83811015610483578082015181840152602081019050610468565b83811115610492576000848401525b50505050565b7f4e487b7100000000000000000000000000000000000000000000000000000000600052604160045260246000fd5b6000601f19601f8301169050919050565b6104e18161044c565b81146104ec57600080fd5b5056fea26469706673582212207803b807d65003a191abec644b0dbe882a4689649954b19ee31a43d4ab3d508d64736f6c63430008000033",
  "linkReferences": {},
  "deployedLinkReferences": {}
}