{
  "_format": "hh-sol-artifact-1",
  "contractName": "bridgeRegistry",
  "sourceName": "contracts/bridgeRegistry.sol",
  "abi": [
    {
      "inputs": [
        {
          "internalType": "string",
          "name": "name_",
          "type": "string"
        }
      ],
      "stateMutability": "nonpayable",
      "type": "constructor"
    },
    {
      "anonymous": false,
      "inputs": [
        {
          "indexed": false,
          "internalType": "uint256",
          "name": "minted_",
          "type": "uint256"
        }
      ],
      "name": "Minted",
      "type": "event"
    },
    {
      "inputs": [
        {
          "internalType": "uint256",
          "name": "proxy_",
          "type": "uint256"
        }
      ],
      "name": "burnProxy",
      "outputs": [],
      "stateMutability": "nonpayable",
      "type": "function"
    },
    {
      "inputs": [],
      "name": "getTokenID",
      "outputs": [
        {
          "internalType": "uint256",
          "name": "",
          "type": "uint256"
        }
      ],
      "stateMutability": "view",
      "type": "function"
    },
    {
      "inputs": [
        {
          "internalType": "string",
          "name": "name_",
          "type": "string"
        },
        {
          "internalType": "string",
          "name": "symbol_",
          "type": "string"
        },
        {
          "internalType": "string",
          "name": "assetData_",
          "type": "string"
        }
      ],
      "name": "mintInReg",
      "outputs": [
        {
          "internalType": "address",
          "name": "",
          "type": "address"
        }
      ],
      "stateMutability": "nonpayable",
      "type": "function"
    },
    {
      "inputs": [],
      "name": "name",
      "outputs": [
        {
          "internalType": "string",
          "name": "",
          "type": "string"
        }
      ],
      "stateMutability": "view",
      "type": "function"
    },
    {
      "inputs": [
        {
          "internalType": "uint256",
          "name": "tokenId",
          "type": "uint256"
        }
      ],
      "name": "ownerOf",
      "outputs": [
        {
          "internalType": "address",
          "name": "",
          "type": "address"
        }
      ],
      "stateMutability": "view",
      "type": "function"
    },
    {
      "inputs": [],
      "name": "symbol",
      "outputs": [
        {
          "internalType": "string",
          "name": "",
          "type": "string"
        }
      ],
      "stateMutability": "view",
      "type": "function"
    },
    {
      "inputs": [
        {
          "internalType": "uint256",
          "name": "tokenId",
          "type": "uint256"
        }
      ],
      "name": "tokenURI",
      "outputs": [
        {
          "internalType": "string",
          "name": "",
          "type": "string"
        }
      ],
      "stateMutability": "view",
      "type": "function"
    }
  ],
  "bytecode": "0x60806040523480156200001157600080fd5b506040516200248038038062002480833981810160405281019062000037919062000181565b80600090805190602001906200004f9291906200005f565b50600060018190555050620002f7565b8280546200006d9062000263565b90600052602060002090601f016020900481019282620000915760008555620000dd565b82601f10620000ac57805160ff1916838001178555620000dd565b82800160010185558215620000dd579182015b82811115620000dc578251825591602001919060010190620000bf565b5b509050620000ec9190620000f0565b5090565b5b808211156200010b576000816000905550600101620000f1565b5090565b6000620001266200012084620001fa565b620001c6565b9050828152602081018484840111156200013f57600080fd5b6200014c8482856200022d565b509392505050565b600082601f8301126200016657600080fd5b8151620001788482602086016200010f565b91505092915050565b6000602082840312156200019457600080fd5b600082015167ffffffffffffffff811115620001af57600080fd5b620001bd8482850162000154565b91505092915050565b6000604051905081810181811067ffffffffffffffff82111715620001f057620001ef620002c8565b5b8060405250919050565b600067ffffffffffffffff821115620002185762000217620002c8565b5b601f19601f8301169050602081019050919050565b60005b838110156200024d57808201518184015260208101905062000230565b838111156200025d576000848401525b50505050565b600060028204905060018216806200027c57607f821691505b6020821081141562000293576200029262000299565b5b50919050565b7f4e487b7100000000000000000000000000000000000000000000000000000000600052602260045260246000fd5b7f4e487b7100000000000000000000000000000000000000000000000000000000600052604160045260246000fd5b61217980620003076000396000f3fe60806040523480156200001157600080fd5b5060043610620000885760003560e01c80636352211e11620000635780636352211e14620001055780636ba367a3146200013b57806395d89b41146200015d578063c87b56dd146200017f5762000088565b806306fdde03146200008d5780632e2a941514620000af5780635388a01314620000e5575b600080fd5b62000097620001b5565b604051620000a6919062000ba3565b60405180910390f35b620000cd6004803603810190620000c7919062000959565b6200029f565b604051620000dc919062000b59565b60405180910390f35b620001036004803603810190620000fd9190620009fa565b62000470565b005b6200012360048036038101906200011d9190620009fa565b620004c6565b60405162000132919062000b59565b60405180910390f35b620001456200057b565b60405162000154919062000c0b565b60405180910390f35b62000167620005c2565b60405162000176919062000ba3565b60405180910390f35b6200019d6004803603810190620001979190620009fa565b620006ac565b604051620001ac919062000ba3565b60405180910390f35b606060036000600260003373ffffffffffffffffffffffffffffffffffffffff1673ffffffffffffffffffffffffffffffffffffffff1681526020019081526020016000205481526020019081526020016000208054620002169062000d69565b80601f0160208091040260200160405190810160405280929190818152602001828054620002449062000d69565b8015620002955780601f10620002695761010080835404028352916020019162000295565b820191906000526020600020905b8154815290600101906020018083116200027757829003601f168201915b5050505050905090565b6000803330604051620002b29062000812565b620002bf92919062000b76565b604051809103906000f080158015620002dc573d6000803e3d6000fd5b509050600081905060006001549050600154600260008473ffffffffffffffffffffffffffffffffffffffff1673ffffffffffffffffffffffffffffffffffffffff1681526020019081526020016000208190555060016000815480929190620003469062000d9f565b9190505550336005600083815260200190815260200160002060006101000a81548173ffffffffffffffffffffffffffffffffffffffff021916908373ffffffffffffffffffffffffffffffffffffffff16021790555086600360008381526020019081526020016000209080519060200190620003c692919062000820565b5085600460008381526020019081526020016000209080519060200190620003f092919062000820565b50846006600083815260200190815260200160002090805190602001906200041a92919062000820565b507f176b02bb2d12439ff7a20b59f402cca16c76f50508b13ef3166a600eb719354a600180546200044c919062000cab565b6040516200045b919062000c0b565b60405180910390a18193505050509392505050565b60006005600083815260200190815260200160002060006101000a81548173ffffffffffffffffffffffffffffffffffffffff021916908373ffffffffffffffffffffffffffffffffffffffff16021790555050565b6000806005600084815260200190815260200160002060009054906101000a900473ffffffffffffffffffffffffffffffffffffffff169050600073ffffffffffffffffffffffffffffffffffffffff168173ffffffffffffffffffffffffffffffffffffffff16141562000572576040517f08c379a0000000000000000000000000000000000000000000000000000000008152600401620005699062000bc7565b60405180910390fd5b80915050919050565b6000600260003373ffffffffffffffffffffffffffffffffffffffff1673ffffffffffffffffffffffffffffffffffffffff16815260200190815260200160002054905090565b606060046000600260003373ffffffffffffffffffffffffffffffffffffffff1673ffffffffffffffffffffffffffffffffffffffff1681526020019081526020016000205481526020019081526020016000208054620006239062000d69565b80601f0160208091040260200160405190810160405280929190818152602001828054620006519062000d69565b8015620006a25780601f106200067657610100808354040283529160200191620006a2565b820191906000526020600020905b8154815290600101906020018083116200068457829003601f168201915b5050505050905090565b6060620006b982620007a6565b620006fb576040517f08c379a0000000000000000000000000000000000000000000000000000000008152600401620006f29062000be9565b60405180910390fd5b6006600083815260200190815260200160002080546200071b9062000d69565b80601f0160208091040260200160405190810160405280929190818152602001828054620007499062000d69565b80156200079a5780601f106200076e576101008083540402835291602001916200079a565b820191906000526020600020905b8154815290600101906020018083116200077c57829003601f168201915b50505050509050919050565b60008073ffffffffffffffffffffffffffffffffffffffff166005600084815260200190815260200160002060009054906101000a900473ffffffffffffffffffffffffffffffffffffffff1673ffffffffffffffffffffffffffffffffffffffff1614159050919050565b61129e8062000ea683390190565b8280546200082e9062000d69565b90600052602060002090601f0160209004810192826200085257600085556200089e565b82601f106200086d57805160ff19168380011785556200089e565b828001600101855582156200089e579182015b828111156200089d57825182559160200191906001019062000880565b5b509050620008ad9190620008b1565b5090565b5b80821115620008cc576000816000905550600101620008b2565b5090565b6000620008e7620008e18462000c5c565b62000c28565b9050828152602081018484840111156200090057600080fd5b6200090d84828562000d24565b509392505050565b600082601f8301126200092757600080fd5b813562000939848260208601620008d0565b91505092915050565b600081359050620009538162000e8b565b92915050565b6000806000606084860312156200096f57600080fd5b600084013567ffffffffffffffff8111156200098a57600080fd5b620009988682870162000915565b935050602084013567ffffffffffffffff811115620009b657600080fd5b620009c48682870162000915565b925050604084013567ffffffffffffffff811115620009e257600080fd5b620009f08682870162000915565b9150509250925092565b60006020828403121562000a0d57600080fd5b600062000a1d8482850162000942565b91505092915050565b62000a318162000ce6565b82525050565b600062000a448262000c8f565b62000a50818562000c9a565b935062000a6281856020860162000d33565b62000a6d8162000e7a565b840191505092915050565b600062000a8760298362000c9a565b91507f4552433732313a206f776e657220717565727920666f72206e6f6e657869737460008301527f656e7420746f6b656e00000000000000000000000000000000000000000000006020830152604082019050919050565b600062000aef602f8362000c9a565b91507f4552433732314d657461646174613a2055524920717565727920666f72206e6f60008301527f6e6578697374656e7420746f6b656e00000000000000000000000000000000006020830152604082019050919050565b62000b538162000d1a565b82525050565b600060208201905062000b70600083018462000a26565b92915050565b600060408201905062000b8d600083018562000a26565b62000b9c602083018462000a26565b9392505050565b6000602082019050818103600083015262000bbf818462000a37565b905092915050565b6000602082019050818103600083015262000be28162000a78565b9050919050565b6000602082019050818103600083015262000c048162000ae0565b9050919050565b600060208201905062000c22600083018462000b48565b92915050565b6000604051905081810181811067ffffffffffffffff8211171562000c525762000c5162000e4b565b5b8060405250919050565b600067ffffffffffffffff82111562000c7a5762000c7962000e4b565b5b601f19601f8301169050602081019050919050565b600081519050919050565b600082825260208201905092915050565b600062000cb88262000d1a565b915062000cc58362000d1a565b92508282101562000cdb5762000cda62000ded565b5b828203905092915050565b600062000cf38262000cfa565b9050919050565b600073ffffffffffffffffffffffffffffffffffffffff82169050919050565b6000819050919050565b82818337600083830152505050565b60005b8381101562000d5357808201518184015260208101905062000d36565b8381111562000d63576000848401525b50505050565b6000600282049050600182168062000d8257607f821691505b6020821081141562000d995762000d9862000e1c565b5b50919050565b600062000dac8262000d1a565b91507fffffffffffffffffffffffffffffffffffffffffffffffffffffffffffffffff82141562000de25762000de162000ded565b5b600182019050919050565b7f4e487b7100000000000000000000000000000000000000000000000000000000600052601160045260246000fd5b7f4e487b7100000000000000000000000000000000000000000000000000000000600052602260045260246000fd5b7f4e487b7100000000000000000000000000000000000000000000000000000000600052604160045260246000fd5b6000601f19601f8301169050919050565b62000e968162000d1a565b811462000ea257600080fd5b5056fe60806040523480156200001157600080fd5b506040516200129e3803806200129e83398181016040528101906200003791906200015d565b8181816000806101000a81548173ffffffffffffffffffffffffffffffffffffffff021916908373ffffffffffffffffffffffffffffffffffffffff16021790555080600160006101000a81548173ffffffffffffffffffffffffffffffffffffffff021916908373ffffffffffffffffffffffffffffffffffffffff16021790555080600260006101000a81548173ffffffffffffffffffffffffffffffffffffffff021916908373ffffffffffffffffffffffffffffffffffffffff160217905550505081600360006101000a81548173ffffffffffffffffffffffffffffffffffffffff021916908373ffffffffffffffffffffffffffffffffffffffff1602179055505050620001ec565b6000815190506200015781620001d2565b92915050565b600080604083850312156200017157600080fd5b6000620001818582860162000146565b9250506020620001948582860162000146565b9150509250929050565b6000620001ab82620001b2565b9050919050565b600073ffffffffffffffffffffffffffffffffffffffff82169050919050565b620001dd816200019e565b8114620001e957600080fd5b50565b6110a280620001fc6000396000f3fe608060405234801561001057600080fd5b50600436106100f55760003560e01c806342966c6811610097578063a22cb46511610066578063a22cb46514610284578063b88d4fde146102a0578063c87b56dd146102bc578063e985e9c5146102ec576100f5565b806342966c68146101ea5780636352211e1461020657806370a082311461023657806395d89b4114610266576100f5565b8063081812fc116100d3578063081812fc14610166578063095ea7b31461019657806323b872dd146101b257806342842e0e146101ce576100f5565b806301ffc9a7146100fa57806305a027d61461012a57806306fdde0314610148575b600080fd5b610114600480360381019061010f9190610c78565b61031c565b6040516101219190610df5565b60405180910390f35b6101326103fe565b60405161013f9190610e52565b60405180910390f35b6101506104a5565b60405161015d9190610e10565b60405180910390f35b610180600480360381019061017b9190610ce2565b610551565b60405161018d9190610dda565b60405180910390f35b6101b060048036038101906101ab9190610c3c565b610558565b005b6101cc60048036038101906101c79190610b36565b61055c565b005b6101e860048036038101906101e39190610b36565b610561565b005b61020460048036038101906101ff9190610ce2565b610581565b005b610220600480360381019061021b9190610ce2565b61069f565b60405161022d9190610dda565b60405180910390f35b610250600480360381019061024b9190610aa8565b610753565b60405161025d9190610e52565b60405180910390f35b61026e61075a565b60405161027b9190610e10565b60405180910390f35b61029e60048036038101906102999190610c00565b610806565b005b6102ba60048036038101906102b59190610b85565b61081c565b005b6102d660048036038101906102d19190610ce2565b610822565b6040516102e39190610e10565b60405180910390f35b61030660048036038101906103019190610afa565b6108db565b6040516103139190610df5565b60405180910390f35b60007f80ac58cd000000000000000000000000000000000000000000000000000000007bffffffffffffffffffffffffffffffffffffffffffffffffffffffff1916827bffffffffffffffffffffffffffffffffffffffffffffffffffffffff191614806103e757507f5b5e139f000000000000000000000000000000000000000000000000000000007bffffffffffffffffffffffffffffffffffffffffffffffffffffffff1916827bffffffffffffffffffffffffffffffffffffffffffffffffffffffff1916145b806103f757506103f6826108e3565b5b9050919050565b6000600260009054906101000a900473ffffffffffffffffffffffffffffffffffffffff1673ffffffffffffffffffffffffffffffffffffffff16636ba367a36040518163ffffffff1660e01b815260040160206040518083038186803b15801561046857600080fd5b505afa15801561047c573d6000803e3d6000fd5b505050506040513d601f19601f820116820180604052508101906104a09190610d0b565b905090565b6060600260009054906101000a900473ffffffffffffffffffffffffffffffffffffffff1673ffffffffffffffffffffffffffffffffffffffff166306fdde036040518163ffffffff1660e01b815260040160006040518083038186803b15801561050f57600080fd5b505afa158015610523573d6000803e3d6000fd5b505050506040513d6000823e3d601f19601f8201168201806040525081019061054c9190610ca1565b905090565b6000919050565b5050565b505050565b61057c8383836040518060200160405280600081525061081c565b505050565b60008054906101000a900473ffffffffffffffffffffffffffffffffffffffff1673ffffffffffffffffffffffffffffffffffffffff163373ffffffffffffffffffffffffffffffffffffffff161461060f576040517f08c379a000000000000000000000000000000000000000000000000000000000815260040161060690610e32565b60405180910390fd5b600260009054906101000a900473ffffffffffffffffffffffffffffffffffffffff1673ffffffffffffffffffffffffffffffffffffffff16635388a013826040518263ffffffff1660e01b815260040161066a9190610e52565b600060405180830381600087803b15801561068457600080fd5b505af1158015610698573d6000803e3d6000fd5b5050505050565b6000600260009054906101000a900473ffffffffffffffffffffffffffffffffffffffff1673ffffffffffffffffffffffffffffffffffffffff16636352211e836040518263ffffffff1660e01b81526004016106fc9190610e52565b60206040518083038186803b15801561071457600080fd5b505afa158015610728573d6000803e3d6000fd5b505050506040513d601f19601f8201168201806040525081019061074c9190610ad1565b9050919050565b6000919050565b6060600260009054906101000a900473ffffffffffffffffffffffffffffffffffffffff1673ffffffffffffffffffffffffffffffffffffffff166395d89b416040518163ffffffff1660e01b815260040160006040518083038186803b1580156107c457600080fd5b505afa1580156107d8573d6000803e3d6000fd5b505050506040513d6000823e3d601f19601f820116820180604052508101906108019190610ca1565b905090565b61081861081161094d565b8383610955565b5050565b50505050565b6060600260009054906101000a900473ffffffffffffffffffffffffffffffffffffffff1673ffffffffffffffffffffffffffffffffffffffff1663c87b56dd836040518263ffffffff1660e01b815260040161087f9190610e52565b60006040518083038186803b15801561089757600080fd5b505afa1580156108ab573d6000803e3d6000fd5b505050506040513d6000823e3d601f19601f820116820180604052508101906108d49190610ca1565b9050919050565b600092915050565b60007f01ffc9a7000000000000000000000000000000000000000000000000000000007bffffffffffffffffffffffffffffffffffffffffffffffffffffffff1916827bffffffffffffffffffffffffffffffffffffffffffffffffffffffff1916149050919050565b600033905090565b505050565b600061096d61096884610e9e565b610e6d565b90508281526020810184848401111561098557600080fd5b610990848285610f8e565b509392505050565b60006109ab6109a684610ece565b610e6d565b9050828152602081018484840111156109c357600080fd5b6109ce848285610f9d565b509392505050565b6000813590506109e581611010565b92915050565b6000815190506109fa81611010565b92915050565b600081359050610a0f81611027565b92915050565b600081359050610a248161103e565b92915050565b600082601f830112610a3b57600080fd5b8135610a4b84826020860161095a565b91505092915050565b600082601f830112610a6557600080fd5b8151610a75848260208601610998565b91505092915050565b600081359050610a8d81611055565b92915050565b600081519050610aa281611055565b92915050565b600060208284031215610aba57600080fd5b6000610ac8848285016109d6565b91505092915050565b600060208284031215610ae357600080fd5b6000610af1848285016109eb565b91505092915050565b60008060408385031215610b0d57600080fd5b6000610b1b858286016109d6565b9250506020610b2c858286016109d6565b9150509250929050565b600080600060608486031215610b4b57600080fd5b6000610b59868287016109d6565b9350506020610b6a868287016109d6565b9250506040610b7b86828701610a7e565b9150509250925092565b60008060008060808587031215610b9b57600080fd5b6000610ba9878288016109d6565b9450506020610bba878288016109d6565b9350506040610bcb87828801610a7e565b925050606085013567ffffffffffffffff811115610be857600080fd5b610bf487828801610a2a565b91505092959194509250565b60008060408385031215610c1357600080fd5b6000610c21858286016109d6565b9250506020610c3285828601610a00565b9150509250929050565b60008060408385031215610c4f57600080fd5b6000610c5d858286016109d6565b9250506020610c6e85828601610a7e565b9150509250929050565b600060208284031215610c8a57600080fd5b6000610c9884828501610a15565b91505092915050565b600060208284031215610cb357600080fd5b600082015167ffffffffffffffff811115610ccd57600080fd5b610cd984828501610a54565b91505092915050565b600060208284031215610cf457600080fd5b6000610d0284828501610a7e565b91505092915050565b600060208284031215610d1d57600080fd5b6000610d2b84828501610a93565b91505092915050565b610d3d81610f1a565b82525050565b610d4c81610f2c565b82525050565b6000610d5d82610efe565b610d678185610f09565b9350610d77818560208601610f9d565b610d8081610fff565b840191505092915050565b6000610d98600983610f09565b91507f6e6f74206f776e657200000000000000000000000000000000000000000000006000830152602082019050919050565b610dd481610f84565b82525050565b6000602082019050610def6000830184610d34565b92915050565b6000602082019050610e0a6000830184610d43565b92915050565b60006020820190508181036000830152610e2a8184610d52565b905092915050565b60006020820190508181036000830152610e4b81610d8b565b9050919050565b6000602082019050610e676000830184610dcb565b92915050565b6000604051905081810181811067ffffffffffffffff82111715610e9457610e93610fd0565b5b8060405250919050565b600067ffffffffffffffff821115610eb957610eb8610fd0565b5b601f19601f8301169050602081019050919050565b600067ffffffffffffffff821115610ee957610ee8610fd0565b5b601f19601f8301169050602081019050919050565b600081519050919050565b600082825260208201905092915050565b6000610f2582610f64565b9050919050565b60008115159050919050565b60007fffffffff0000000000000000000000000000000000000000000000000000000082169050919050565b600073ffffffffffffffffffffffffffffffffffffffff82169050919050565b6000819050919050565b82818337600083830152505050565b60005b83811015610fbb578082015181840152602081019050610fa0565b83811115610fca576000848401525b50505050565b7f4e487b7100000000000000000000000000000000000000000000000000000000600052604160045260246000fd5b6000601f19601f8301169050919050565b61101981610f1a565b811461102457600080fd5b50565b61103081610f2c565b811461103b57600080fd5b50565b61104781610f38565b811461105257600080fd5b50565b61105e81610f84565b811461106957600080fd5b5056fea26469706673582212204b5cf09ba43485f4b787ab3b3bd3c3dce1630a50dc6da2b20b5d4529236a6d9164736f6c63430008000033a26469706673582212201d8ee6ed142a2aaf8a6435fa9735942bc11a4b6a29165e806acc8c680d2641a164736f6c63430008000033",
  "linkReferences": {},
  "deployedLinkReferences": {}
}