{
  "_format": "hh-sol-artifact-1",
  "contractName": "DefaultNFT",
  "sourceName": "contracts/DefaultNFT.sol",
  "abi": [
    {
      "inputs": [
        {
          "internalType": "string",
          "name": "name",
          "type": "string"
        },
        {
          "internalType": "string",
          "name": "symbol",
          "type": "string"
        }
      ],
      "stateMutability": "nonpayable",
      "type": "constructor"
    },
    {
      "anonymous": false,
      "inputs": [
        {
          "indexed": true,
          "internalType": "address",
          "name": "owner",
          "type": "address"
        },
        {
          "indexed": true,
          "internalType": "address",
          "name": "approved",
          "type": "address"
        },
        {
          "indexed": true,
          "internalType": "uint256",
          "name": "tokenId",
          "type": "uint256"
        }
      ],
      "name": "Approval",
      "type": "event"
    },
    {
      "anonymous": false,
      "inputs": [
        {
          "indexed": true,
          "internalType": "address",
          "name": "owner",
          "type": "address"
        },
        {
          "indexed": true,
          "internalType": "address",
          "name": "operator",
          "type": "address"
        },
        {
          "indexed": false,
          "internalType": "bool",
          "name": "approved",
          "type": "bool"
        }
      ],
      "name": "ApprovalForAll",
      "type": "event"
    },
    {
      "anonymous": false,
      "inputs": [
        {
          "indexed": true,
          "internalType": "address",
          "name": "from",
          "type": "address"
        },
        {
          "indexed": true,
          "internalType": "address",
          "name": "to",
          "type": "address"
        },
        {
          "indexed": true,
          "internalType": "uint256",
          "name": "tokenId",
          "type": "uint256"
        }
      ],
      "name": "Transfer",
      "type": "event"
    },
    {
      "inputs": [
        {
          "internalType": "address",
          "name": "to",
          "type": "address"
        },
        {
          "internalType": "uint256",
          "name": "tokenId",
          "type": "uint256"
        }
      ],
      "name": "approve",
      "outputs": [],
      "stateMutability": "nonpayable",
      "type": "function"
    },
    {
      "inputs": [
        {
          "internalType": "address",
          "name": "owner",
          "type": "address"
        }
      ],
      "name": "balanceOf",
      "outputs": [
        {
          "internalType": "uint256",
          "name": "",
          "type": "uint256"
        }
      ],
      "stateMutability": "view",
      "type": "function"
    },
    {
      "inputs": [
        {
          "internalType": "uint256",
          "name": "tokenId",
          "type": "uint256"
        }
      ],
      "name": "getApproved",
      "outputs": [
        {
          "internalType": "address",
          "name": "",
          "type": "address"
        }
      ],
      "stateMutability": "view",
      "type": "function"
    },
    {
      "inputs": [
        {
          "internalType": "address",
          "name": "owner",
          "type": "address"
        },
        {
          "internalType": "address",
          "name": "operator",
          "type": "address"
        }
      ],
      "name": "isApprovedForAll",
      "outputs": [
        {
          "internalType": "bool",
          "name": "",
          "type": "bool"
        }
      ],
      "stateMutability": "view",
      "type": "function"
    },
    {
      "inputs": [
        {
          "internalType": "string",
          "name": "_tokenURI",
          "type": "string"
        }
      ],
      "name": "mint",
      "outputs": [],
      "stateMutability": "nonpayable",
      "type": "function"
    },
    {
      "inputs": [],
      "name": "name",
      "outputs": [
        {
          "internalType": "string",
          "name": "",
          "type": "string"
        }
      ],
      "stateMutability": "view",
      "type": "function"
    },
    {
      "inputs": [
        {
          "internalType": "uint256",
          "name": "tokenId",
          "type": "uint256"
        }
      ],
      "name": "ownerOf",
      "outputs": [
        {
          "internalType": "address",
          "name": "",
          "type": "address"
        }
      ],
      "stateMutability": "view",
      "type": "function"
    },
    {
      "inputs": [
        {
          "internalType": "address",
          "name": "from",
          "type": "address"
        },
        {
          "internalType": "address",
          "name": "to",
          "type": "address"
        },
        {
          "internalType": "uint256",
          "name": "tokenId",
          "type": "uint256"
        }
      ],
      "name": "safeTransferFrom",
      "outputs": [],
      "stateMutability": "nonpayable",
      "type": "function"
    },
    {
      "inputs": [
        {
          "internalType": "address",
          "name": "from",
          "type": "address"
        },
        {
          "internalType": "address",
          "name": "to",
          "type": "address"
        },
        {
          "internalType": "uint256",
          "name": "tokenId",
          "type": "uint256"
        },
        {
          "internalType": "bytes",
          "name": "_data",
          "type": "bytes"
        }
      ],
      "name": "safeTransferFrom",
      "outputs": [],
      "stateMutability": "nonpayable",
      "type": "function"
    },
    {
      "inputs": [
        {
          "internalType": "address",
          "name": "operator",
          "type": "address"
        },
        {
          "internalType": "bool",
          "name": "approved",
          "type": "bool"
        }
      ],
      "name": "setApprovalForAll",
      "outputs": [],
      "stateMutability": "nonpayable",
      "type": "function"
    },
    {
      "inputs": [
        {
          "internalType": "bytes4",
          "name": "interfaceId",
          "type": "bytes4"
        }
      ],
      "name": "supportsInterface",
      "outputs": [
        {
          "internalType": "bool",
          "name": "",
          "type": "bool"
        }
      ],
      "stateMutability": "view",
      "type": "function"
    },
    {
      "inputs": [],
      "name": "symbol",
      "outputs": [
        {
          "internalType": "string",
          "name": "",
          "type": "string"
        }
      ],
      "stateMutability": "view",
      "type": "function"
    },
    {
      "inputs": [],
      "name": "tokenCounter",
      "outputs": [
        {
          "internalType": "uint256",
          "name": "",
          "type": "uint256"
        }
      ],
      "stateMutability": "view",
      "type": "function"
    },
    {
      "inputs": [
        {
          "internalType": "uint256",
          "name": "_tokenId",
          "type": "uint256"
        }
      ],
      "name": "tokenURI",
      "outputs": [
        {
          "internalType": "string",
          "name": "",
          "type": "string"
        }
      ],
      "stateMutability": "view",
      "type": "function"
    },
    {
      "inputs": [
        {
          "internalType": "address",
          "name": "from",
          "type": "address"
        },
        {
          "internalType": "address",
          "name": "to",
          "type": "address"
        },
        {
          "internalType": "uint256",
          "name": "tokenId",
          "type": "uint256"
        }
      ],
      "name": "transferFrom",
      "outputs": [],
      "stateMutability": "nonpayable",
      "type": "function"
    }
  ],
  "bytecode": "0x60806040523480156200001157600080fd5b50604051620029653803806200296583398181016040528101906200003791906200019f565b81818160009080519060200190620000519291906200007d565b5080600190805190602001906200006a9291906200007d565b5050506000600681905550505062000343565b8280546200008b90620002af565b90600052602060002090601f016020900481019282620000af5760008555620000fb565b82601f10620000ca57805160ff1916838001178555620000fb565b82800160010185558215620000fb579182015b82811115620000fa578251825591602001919060010190620000dd565b5b5090506200010a91906200010e565b5090565b5b80821115620001295760008160009055506001016200010f565b5090565b6000620001446200013e8462000246565b62000212565b9050828152602081018484840111156200015d57600080fd5b6200016a84828562000279565b509392505050565b600082601f8301126200018457600080fd5b8151620001968482602086016200012d565b91505092915050565b60008060408385031215620001b357600080fd5b600083015167ffffffffffffffff811115620001ce57600080fd5b620001dc8582860162000172565b925050602083015167ffffffffffffffff811115620001fa57600080fd5b620002088582860162000172565b9150509250929050565b6000604051905081810181811067ffffffffffffffff821117156200023c576200023b62000314565b5b8060405250919050565b600067ffffffffffffffff82111562000264576200026362000314565b5b601f19601f8301169050602081019050919050565b60005b83811015620002995780820151818401526020810190506200027c565b83811115620002a9576000848401525b50505050565b60006002820490506001821680620002c857607f821691505b60208210811415620002df57620002de620002e5565b5b50919050565b7f4e487b7100000000000000000000000000000000000000000000000000000000600052602260045260246000fd5b7f4e487b7100000000000000000000000000000000000000000000000000000000600052604160045260246000fd5b61261280620003536000396000f3fe608060405234801561001057600080fd5b50600436106100f55760003560e01c806370a0823111610097578063c87b56dd11610066578063c87b56dd14610282578063d082e381146102b2578063d85d3d27146102d0578063e985e9c5146102ec576100f5565b806370a08231146101fc57806395d89b411461022c578063a22cb4651461024a578063b88d4fde14610266576100f5565b8063095ea7b3116100d3578063095ea7b31461017857806323b872dd1461019457806342842e0e146101b05780636352211e146101cc576100f5565b806301ffc9a7146100fa57806306fdde031461012a578063081812fc14610148575b600080fd5b610114600480360381019061010f9190611962565b61031c565b6040516101219190612046565b60405180910390f35b6101326103fe565b60405161013f9190612061565b60405180910390f35b610162600480360381019061015d91906119f5565b610490565b60405161016f9190611fdf565b60405180910390f35b610192600480360381019061018d9190611926565b610515565b005b6101ae60048036038101906101a99190611820565b61062d565b005b6101ca60048036038101906101c59190611820565b61068d565b005b6101e660048036038101906101e191906119f5565b6106ad565b6040516101f39190611fdf565b60405180910390f35b610216600480360381019061021191906117bb565b61075f565b6040516102239190612243565b60405180910390f35b610234610817565b6040516102419190612061565b60405180910390f35b610264600480360381019061025f91906118ea565b6108a9565b005b610280600480360381019061027b919061186f565b6108bf565b005b61029c600480360381019061029791906119f5565b610921565b6040516102a99190612061565b60405180910390f35b6102ba610a0e565b6040516102c79190612243565b60405180910390f35b6102ea60048036038101906102e591906119b4565b610a14565b005b610306600480360381019061030191906117e4565b610a47565b6040516103139190612046565b60405180910390f35b60007f80ac58cd000000000000000000000000000000000000000000000000000000007bffffffffffffffffffffffffffffffffffffffffffffffffffffffff1916827bffffffffffffffffffffffffffffffffffffffffffffffffffffffff191614806103e757507f5b5e139f000000000000000000000000000000000000000000000000000000007bffffffffffffffffffffffffffffffffffffffffffffffffffffffff1916827bffffffffffffffffffffffffffffffffffffffffffffffffffffffff1916145b806103f757506103f682610adb565b5b9050919050565b60606000805461040d90612467565b80601f016020809104026020016040519081016040528092919081815260200182805461043990612467565b80156104865780601f1061045b57610100808354040283529160200191610486565b820191906000526020600020905b81548152906001019060200180831161046957829003601f168201915b5050505050905090565b600061049b82610b45565b6104da576040517f08c379a00000000000000000000000000000000000000000000000000000000081526004016104d1906121a3565b60405180910390fd5b6004600083815260200190815260200160002060009054906101000a900473ffffffffffffffffffffffffffffffffffffffff169050919050565b6000610520826106ad565b90508073ffffffffffffffffffffffffffffffffffffffff168373ffffffffffffffffffffffffffffffffffffffff161415610591576040517f08c379a000000000000000000000000000000000000000000000000000000000815260040161058890612203565b60405180910390fd5b8073ffffffffffffffffffffffffffffffffffffffff166105b0610bb1565b73ffffffffffffffffffffffffffffffffffffffff1614806105df57506105de816105d9610bb1565b610a47565b5b61061e576040517f08c379a000000000000000000000000000000000000000000000000000000000815260040161061590612123565b60405180910390fd5b6106288383610bb9565b505050565b61063e610638610bb1565b82610c72565b61067d576040517f08c379a000000000000000000000000000000000000000000000000000000000815260040161067490612223565b60405180910390fd5b610688838383610d50565b505050565b6106a8838383604051806020016040528060008152506108bf565b505050565b6000806002600084815260200190815260200160002060009054906101000a900473ffffffffffffffffffffffffffffffffffffffff169050600073ffffffffffffffffffffffffffffffffffffffff168173ffffffffffffffffffffffffffffffffffffffff161415610756576040517f08c379a000000000000000000000000000000000000000000000000000000000815260040161074d90612163565b60405180910390fd5b80915050919050565b60008073ffffffffffffffffffffffffffffffffffffffff168273ffffffffffffffffffffffffffffffffffffffff1614156107d0576040517f08c379a00000000000000000000000000000000000000000000000000000000081526004016107c790612143565b60405180910390fd5b600360008373ffffffffffffffffffffffffffffffffffffffff1673ffffffffffffffffffffffffffffffffffffffff168152602001908152602001600020549050919050565b60606001805461082690612467565b80601f016020809104026020016040519081016040528092919081815260200182805461085290612467565b801561089f5780601f106108745761010080835404028352916020019161089f565b820191906000526020600020905b81548152906001019060200180831161088257829003601f168201915b5050505050905090565b6108bb6108b4610bb1565b8383610fac565b5050565b6108d06108ca610bb1565b83610c72565b61090f576040517f08c379a000000000000000000000000000000000000000000000000000000000815260040161090690612223565b60405180910390fd5b61091b84848484611119565b50505050565b606061092c82610b45565b61096b576040517f08c379a0000000000000000000000000000000000000000000000000000000008152600401610962906121c3565b60405180910390fd5b60076000838152602001908152602001600020805461098990612467565b80601f01602080910402602001604051908101604052809291908181526020018280546109b590612467565b8015610a025780601f106109d757610100808354040283529160200191610a02565b820191906000526020600020905b8154815290600101906020018083116109e557829003601f168201915b50505050509050919050565b60065481565b610a2033600654611175565b610a2c60065482611193565b60066000815480929190610a3f90612499565b919050555050565b6000600560008473ffffffffffffffffffffffffffffffffffffffff1673ffffffffffffffffffffffffffffffffffffffff16815260200190815260200160002060008373ffffffffffffffffffffffffffffffffffffffff1673ffffffffffffffffffffffffffffffffffffffff16815260200190815260200160002060009054906101000a900460ff16905092915050565b60007f01ffc9a7000000000000000000000000000000000000000000000000000000007bffffffffffffffffffffffffffffffffffffffffffffffffffffffff1916827bffffffffffffffffffffffffffffffffffffffffffffffffffffffff1916149050919050565b60008073ffffffffffffffffffffffffffffffffffffffff166002600084815260200190815260200160002060009054906101000a900473ffffffffffffffffffffffffffffffffffffffff1673ffffffffffffffffffffffffffffffffffffffff1614159050919050565b600033905090565b816004600083815260200190815260200160002060006101000a81548173ffffffffffffffffffffffffffffffffffffffff021916908373ffffffffffffffffffffffffffffffffffffffff160217905550808273ffffffffffffffffffffffffffffffffffffffff16610c2c836106ad565b73ffffffffffffffffffffffffffffffffffffffff167f8c5be1e5ebec7d5bd14f71427d1e84f3dd0314c0f7b2291e5b200ac8c7c3b92560405160405180910390a45050565b6000610c7d82610b45565b610cbc576040517f08c379a0000000000000000000000000000000000000000000000000000000008152600401610cb390612103565b60405180910390fd5b6000610cc7836106ad565b90508073ffffffffffffffffffffffffffffffffffffffff168473ffffffffffffffffffffffffffffffffffffffff161480610d3657508373ffffffffffffffffffffffffffffffffffffffff16610d1e84610490565b73ffffffffffffffffffffffffffffffffffffffff16145b80610d475750610d468185610a47565b5b91505092915050565b8273ffffffffffffffffffffffffffffffffffffffff16610d70826106ad565b73ffffffffffffffffffffffffffffffffffffffff1614610dc6576040517f08c379a0000000000000000000000000000000000000000000000000000000008152600401610dbd906121e3565b60405180910390fd5b600073ffffffffffffffffffffffffffffffffffffffff168273ffffffffffffffffffffffffffffffffffffffff161415610e36576040517f08c379a0000000000000000000000000000000000000000000000000000000008152600401610e2d906120c3565b60405180910390fd5b610e41838383611207565b610e4c600082610bb9565b6001600360008573ffffffffffffffffffffffffffffffffffffffff1673ffffffffffffffffffffffffffffffffffffffff1681526020019081526020016000206000828254610e9c919061237d565b925050819055506001600360008473ffffffffffffffffffffffffffffffffffffffff1673ffffffffffffffffffffffffffffffffffffffff1681526020019081526020016000206000828254610ef39190612327565b92505081905550816002600083815260200190815260200160002060006101000a81548173ffffffffffffffffffffffffffffffffffffffff021916908373ffffffffffffffffffffffffffffffffffffffff160217905550808273ffffffffffffffffffffffffffffffffffffffff168473ffffffffffffffffffffffffffffffffffffffff167fddf252ad1be2c89b69c2b068fc378daa952ba7f163c4a11628f55a4df523b3ef60405160405180910390a4505050565b8173ffffffffffffffffffffffffffffffffffffffff168373ffffffffffffffffffffffffffffffffffffffff16141561101b576040517f08c379a0000000000000000000000000000000000000000000000000000000008152600401611012906120e3565b60405180910390fd5b80600560008573ffffffffffffffffffffffffffffffffffffffff1673ffffffffffffffffffffffffffffffffffffffff16815260200190815260200160002060008473ffffffffffffffffffffffffffffffffffffffff1673ffffffffffffffffffffffffffffffffffffffff16815260200190815260200160002060006101000a81548160ff0219169083151502179055508173ffffffffffffffffffffffffffffffffffffffff168373ffffffffffffffffffffffffffffffffffffffff167f17307eab39ab6107e8899845ad3d59bd9653f200f220920489ca2b5937696c318360405161110c9190612046565b60405180910390a3505050565b611124848484610d50565b6111308484848461120c565b61116f576040517f08c379a000000000000000000000000000000000000000000000000000000000815260040161116690612083565b60405180910390fd5b50505050565b61118f8282604051806020016040528060008152506113a3565b5050565b61119c82610b45565b6111db576040517f08c379a00000000000000000000000000000000000000000000000000000000081526004016111d2906121c3565b60405180910390fd5b806007600084815260200190815260200160002090805190602001906112029291906115df565b505050565b505050565b600061122d8473ffffffffffffffffffffffffffffffffffffffff166113fe565b15611396578373ffffffffffffffffffffffffffffffffffffffff1663150b7a02611256610bb1565b8786866040518563ffffffff1660e01b81526004016112789493929190611ffa565b602060405180830381600087803b15801561129257600080fd5b505af19250505080156112c357506040513d601f19601f820116820180604052508101906112c0919061198b565b60015b611346573d80600081146112f3576040519150601f19603f3d011682016040523d82523d6000602084013e6112f8565b606091505b5060008151141561133e576040517f08c379a000000000000000000000000000000000000000000000000000000000815260040161133590612083565b60405180910390fd5b805181602001fd5b63150b7a0260e01b7bffffffffffffffffffffffffffffffffffffffffffffffffffffffff1916817bffffffffffffffffffffffffffffffffffffffffffffffffffffffff19161491505061139b565b600190505b949350505050565b6113ad8383611411565b6113ba600084848461120c565b6113f9576040517f08c379a00000000000000000000000000000000000000000000000000000000081526004016113f090612083565b60405180910390fd5b505050565b600080823b905060008111915050919050565b600073ffffffffffffffffffffffffffffffffffffffff168273ffffffffffffffffffffffffffffffffffffffff161415611481576040517f08c379a000000000000000000000000000000000000000000000000000000000815260040161147890612183565b60405180910390fd5b61148a81610b45565b156114ca576040517f08c379a00000000000000000000000000000000000000000000000000000000081526004016114c1906120a3565b60405180910390fd5b6114d660008383611207565b6001600360008473ffffffffffffffffffffffffffffffffffffffff1673ffffffffffffffffffffffffffffffffffffffff16815260200190815260200160002060008282546115269190612327565b92505081905550816002600083815260200190815260200160002060006101000a81548173ffffffffffffffffffffffffffffffffffffffff021916908373ffffffffffffffffffffffffffffffffffffffff160217905550808273ffffffffffffffffffffffffffffffffffffffff16600073ffffffffffffffffffffffffffffffffffffffff167fddf252ad1be2c89b69c2b068fc378daa952ba7f163c4a11628f55a4df523b3ef60405160405180910390a45050565b8280546115eb90612467565b90600052602060002090601f01602090048101928261160d5760008555611654565b82601f1061162657805160ff1916838001178555611654565b82800160010185558215611654579182015b82811115611653578251825591602001919060010190611638565b5b5090506116619190611665565b5090565b5b8082111561167e576000816000905550600101611666565b5090565b60006116956116908461228f565b61225e565b9050828152602081018484840111156116ad57600080fd5b6116b8848285612425565b509392505050565b60006116d36116ce846122bf565b61225e565b9050828152602081018484840111156116eb57600080fd5b6116f6848285612425565b509392505050565b60008135905061170d81612580565b92915050565b60008135905061172281612597565b92915050565b600081359050611737816125ae565b92915050565b60008151905061174c816125ae565b92915050565b600082601f83011261176357600080fd5b8135611773848260208601611682565b91505092915050565b600082601f83011261178d57600080fd5b813561179d8482602086016116c0565b91505092915050565b6000813590506117b5816125c5565b92915050565b6000602082840312156117cd57600080fd5b60006117db848285016116fe565b91505092915050565b600080604083850312156117f757600080fd5b6000611805858286016116fe565b9250506020611816858286016116fe565b9150509250929050565b60008060006060848603121561183557600080fd5b6000611843868287016116fe565b9350506020611854868287016116fe565b9250506040611865868287016117a6565b9150509250925092565b6000806000806080858703121561188557600080fd5b6000611893878288016116fe565b94505060206118a4878288016116fe565b93505060406118b5878288016117a6565b925050606085013567ffffffffffffffff8111156118d257600080fd5b6118de87828801611752565b91505092959194509250565b600080604083850312156118fd57600080fd5b600061190b858286016116fe565b925050602061191c85828601611713565b9150509250929050565b6000806040838503121561193957600080fd5b6000611947858286016116fe565b9250506020611958858286016117a6565b9150509250929050565b60006020828403121561197457600080fd5b600061198284828501611728565b91505092915050565b60006020828403121561199d57600080fd5b60006119ab8482850161173d565b91505092915050565b6000602082840312156119c657600080fd5b600082013567ffffffffffffffff8111156119e057600080fd5b6119ec8482850161177c565b91505092915050565b600060208284031215611a0757600080fd5b6000611a15848285016117a6565b91505092915050565b611a27816123b1565b82525050565b611a36816123c3565b82525050565b6000611a47826122ef565b611a518185612305565b9350611a61818560208601612434565b611a6a8161256f565b840191505092915050565b6000611a80826122fa565b611a8a8185612316565b9350611a9a818560208601612434565b611aa38161256f565b840191505092915050565b6000611abb603283612316565b91507f4552433732313a207472616e7366657220746f206e6f6e20455243373231526560008301527f63656976657220696d706c656d656e74657200000000000000000000000000006020830152604082019050919050565b6000611b21601c83612316565b91507f4552433732313a20746f6b656e20616c7265616479206d696e746564000000006000830152602082019050919050565b6000611b61602483612316565b91507f4552433732313a207472616e7366657220746f20746865207a65726f2061646460008301527f72657373000000000000000000000000000000000000000000000000000000006020830152604082019050919050565b6000611bc7601983612316565b91507f4552433732313a20617070726f766520746f2063616c6c6572000000000000006000830152602082019050919050565b6000611c07602c83612316565b91507f4552433732313a206f70657261746f7220717565727920666f72206e6f6e657860008301527f697374656e7420746f6b656e00000000000000000000000000000000000000006020830152604082019050919050565b6000611c6d603883612316565b91507f4552433732313a20617070726f76652063616c6c6572206973206e6f74206f7760008301527f6e6572206e6f7220617070726f76656420666f7220616c6c00000000000000006020830152604082019050919050565b6000611cd3602a83612316565b91507f4552433732313a2062616c616e636520717565727920666f7220746865207a6560008301527f726f2061646472657373000000000000000000000000000000000000000000006020830152604082019050919050565b6000611d39602983612316565b91507f4552433732313a206f776e657220717565727920666f72206e6f6e657869737460008301527f656e7420746f6b656e00000000000000000000000000000000000000000000006020830152604082019050919050565b6000611d9f602083612316565b91507f4552433732313a206d696e7420746f20746865207a65726f20616464726573736000830152602082019050919050565b6000611ddf602c83612316565b91507f4552433732313a20617070726f76656420717565727920666f72206e6f6e657860008301527f697374656e7420746f6b656e00000000000000000000000000000000000000006020830152604082019050919050565b6000611e45602c83612316565b91507f4552433732314d657461646174613a2055524920736574206f66206e6f6e657860008301527f697374656e7420746f6b656e00000000000000000000000000000000000000006020830152604082019050919050565b6000611eab602983612316565b91507f4552433732313a207472616e73666572206f6620746f6b656e2074686174206960008301527f73206e6f74206f776e00000000000000000000000000000000000000000000006020830152604082019050919050565b6000611f11602183612316565b91507f4552433732313a20617070726f76616c20746f2063757272656e74206f776e6560008301527f72000000000000000000000000000000000000000000000000000000000000006020830152604082019050919050565b6000611f77603183612316565b91507f4552433732313a207472616e736665722063616c6c6572206973206e6f74206f60008301527f776e6572206e6f7220617070726f7665640000000000000000000000000000006020830152604082019050919050565b611fd98161241b565b82525050565b6000602082019050611ff46000830184611a1e565b92915050565b600060808201905061200f6000830187611a1e565b61201c6020830186611a1e565b6120296040830185611fd0565b818103606083015261203b8184611a3c565b905095945050505050565b600060208201905061205b6000830184611a2d565b92915050565b6000602082019050818103600083015261207b8184611a75565b905092915050565b6000602082019050818103600083015261209c81611aae565b9050919050565b600060208201905081810360008301526120bc81611b14565b9050919050565b600060208201905081810360008301526120dc81611b54565b9050919050565b600060208201905081810360008301526120fc81611bba565b9050919050565b6000602082019050818103600083015261211c81611bfa565b9050919050565b6000602082019050818103600083015261213c81611c60565b9050919050565b6000602082019050818103600083015261215c81611cc6565b9050919050565b6000602082019050818103600083015261217c81611d2c565b9050919050565b6000602082019050818103600083015261219c81611d92565b9050919050565b600060208201905081810360008301526121bc81611dd2565b9050919050565b600060208201905081810360008301526121dc81611e38565b9050919050565b600060208201905081810360008301526121fc81611e9e565b9050919050565b6000602082019050818103600083015261221c81611f04565b9050919050565b6000602082019050818103600083015261223c81611f6a565b9050919050565b60006020820190506122586000830184611fd0565b92915050565b6000604051905081810181811067ffffffffffffffff8211171561228557612284612540565b5b8060405250919050565b600067ffffffffffffffff8211156122aa576122a9612540565b5b601f19601f8301169050602081019050919050565b600067ffffffffffffffff8211156122da576122d9612540565b5b601f19601f8301169050602081019050919050565b600081519050919050565b600081519050919050565b600082825260208201905092915050565b600082825260208201905092915050565b60006123328261241b565b915061233d8361241b565b9250827fffffffffffffffffffffffffffffffffffffffffffffffffffffffffffffffff03821115612372576123716124e2565b5b828201905092915050565b60006123888261241b565b91506123938361241b565b9250828210156123a6576123a56124e2565b5b828203905092915050565b60006123bc826123fb565b9050919050565b60008115159050919050565b60007fffffffff0000000000000000000000000000000000000000000000000000000082169050919050565b600073ffffffffffffffffffffffffffffffffffffffff82169050919050565b6000819050919050565b82818337600083830152505050565b60005b83811015612452578082015181840152602081019050612437565b83811115612461576000848401525b50505050565b6000600282049050600182168061247f57607f821691505b6020821081141561249357612492612511565b5b50919050565b60006124a48261241b565b91507fffffffffffffffffffffffffffffffffffffffffffffffffffffffffffffffff8214156124d7576124d66124e2565b5b600182019050919050565b7f4e487b7100000000000000000000000000000000000000000000000000000000600052601160045260246000fd5b7f4e487b7100000000000000000000000000000000000000000000000000000000600052602260045260246000fd5b7f4e487b7100000000000000000000000000000000000000000000000000000000600052604160045260246000fd5b6000601f19601f8301169050919050565b612589816123b1565b811461259457600080fd5b50565b6125a0816123c3565b81146125ab57600080fd5b50565b6125b7816123cf565b81146125c257600080fd5b50565b6125ce8161241b565b81146125d957600080fd5b5056fea2646970667358221220f0419b2bd6893e7cafcc4b7d8ad8783e4090245d6e83f34952654b0d00ac14d864736f6c63430008000033",
  "linkReferences": {},
  "deployedLinkReferences": {}
}